{"contracts/multiSwap.sol":{"multiTokenSwap":{"abi":[{"inputs":[{"internalType":"contract ISwapRouter","name":"_swapRouter","type":"address"}],"stateMutability":"nonpayable","type":"constructor"},{"inputs":[],"name":"DAI","outputs":[{"internalType":"address","name":"","type":"address"}],"stateMutability":"view","type":"function"},{"inputs":[],"name":"USDC","outputs":[{"internalType":"address","name":"","type":"address"}],"stateMutability":"view","type":"function"},{"inputs":[],"name":"WETH9","outputs":[{"internalType":"address","name":"","type":"address"}],"stateMutability":"view","type":"function"},{"inputs":[],"name":"poolFee","outputs":[{"internalType":"uint24","name":"","type":"uint24"}],"stateMutability":"view","type":"function"},{"inputs":[{"internalType":"uint256","name":"amountIn","type":"uint256"}],"name":"swapExactInputSingle","outputs":[{"internalType":"uint256","name":"amountOut","type":"uint256"}],"stateMutability":"nonpayable","type":"function"},{"inputs":[],"name":"swapRouter","outputs":[{"internalType":"contract ISwapRouter","name":"","type":"address"}],"stateMutability":"view","type":"function"}],"evm":{"bytecode":{"linkReferences":{},"object":"60a060405234801561001057600080fd5b5060405161063d38038061063d83398101604081905261002f91610040565b6001600160a01b0316608052610070565b60006020828403121561005257600080fd5b81516001600160a01b038116811461006957600080fd5b9392505050565b6080516105a56100986000396000818160fd01528181610176015261026601526105a56000f3fe608060405234801561001057600080fd5b50600436106100625760003560e01c8063089fe6aa146100675780634aa4a4fc1461008957806373bd43ad146100bc57806389a30271146100dd578063c31c9c07146100f8578063e0bab4c41461011f575b600080fd5b610070610bb881565b60405162ffffff90911681526020015b60405180910390f35b6100a473c02aaa39b223fe8d0a0e5c4f27ead9083c756cc281565b6040516001600160a01b039091168152602001610080565b6100cf6100ca3660046104ec565b61013a565b604051908152602001610080565b6100a473a0b86991c6218b36c1d19d4a2e9eb0ce3606eb4881565b6100a47f000000000000000000000000000000000000000000000000000000000000000081565b6100a4736b175474e89094c44da98b954eedeac495271d0f81565b600061015c736b175474e89094c44da98b954eedeac495271d0f3330856102dd565b61019b736b175474e89094c44da98b954eedeac495271d0f7f0000000000000000000000000000000000000000000000000000000000000000846103ec565b6040805161010081018252736b175474e89094c44da98b954eedeac495271d0f815273c02aaa39b223fe8d0a0e5c4f27ead9083c756cc260208201908152610bb88284019081523360608401908152426080850190815260a08501888152600060c0870181815260e08801918252975163414bf38960e01b815287516001600160a01b039081166004830152965187166024820152945162ffffff166044860152925185166064850152905160848401525160a4830152935160c48201529251811660e484015290917f00000000000000000000000000000000000000000000000000000000000000009091169063414bf38990610104016020604051808303816000875af11580156102b2573d6000803e3d6000fd5b505050506040513d601f19601f820116820180604052508101906102d69190610505565b9392505050565b604080516001600160a01b0385811660248301528481166044830152606480830185905283518084039091018152608490920183526020820180516001600160e01b03166323b872dd60e01b1790529151600092839290881691610341919061051e565b6000604051808303816000865af19150503d806000811461037e576040519150601f19603f3d011682016040523d82523d6000602084013e610383565b606091505b50915091508180156103ad5750805115806103ad5750808060200190518101906103ad919061054d565b6103e45760405162461bcd60e51b815260206004820152600360248201526229aa2360e91b60448201526064015b60405180910390fd5b505050505050565b604080516001600160a01b038481166024830152604480830185905283518084039091018152606490920183526020820180516001600160e01b031663095ea7b360e01b1790529151600092839290871691610448919061051e565b6000604051808303816000865af19150503d8060008114610485576040519150601f19603f3d011682016040523d82523d6000602084013e61048a565b606091505b50915091508180156104b45750805115806104b45750808060200190518101906104b4919061054d565b6104e55760405162461bcd60e51b8152602060048201526002602482015261534160f01b60448201526064016103db565b5050505050565b6000602082840312156104fe57600080fd5b5035919050565b60006020828403121561051757600080fd5b5051919050565b6000825160005b8181101561053f5760208186018101518583015201610525565b506000920191825250919050565b60006020828403121561055f57600080fd5b815180151581146102d657600080fdfea2646970667358221220232ae3ae18362fc82e8d20d8534b5e0ad486f15acbc4589074bec4c375b78b1764736f6c63430008140033","opcodes":"PUSH1 0xA0 PUSH1 0x40 MSTORE CALLVALUE DUP1 ISZERO PUSH2 0x10 JUMPI PUSH1 0x0 DUP1 REVERT JUMPDEST POP PUSH1 0x40 MLOAD PUSH2 0x63D CODESIZE SUB DUP1 PUSH2 0x63D DUP4 CODECOPY DUP2 ADD PUSH1 0x40 DUP2 SWAP1 MSTORE PUSH2 0x2F SWAP2 PUSH2 0x40 JUMP JUMPDEST PUSH1 0x1 PUSH1 0x1 PUSH1 0xA0 SHL SUB AND PUSH1 0x80 MSTORE PUSH2 0x70 JUMP JUMPDEST PUSH1 0x0 PUSH1 0x20 DUP3 DUP5 SUB SLT ISZERO PUSH2 0x52 JUMPI PUSH1 0x0 DUP1 REVERT JUMPDEST DUP2 MLOAD PUSH1 0x1 PUSH1 0x1 PUSH1 0xA0 SHL SUB DUP2 AND DUP2 EQ PUSH2 0x69 JUMPI PUSH1 0x0 DUP1 REVERT JUMPDEST SWAP4 SWAP3 POP POP POP JUMP JUMPDEST PUSH1 0x80 MLOAD PUSH2 0x5A5 PUSH2 0x98 PUSH1 0x0 CODECOPY PUSH1 0x0 DUP2 DUP2 PUSH1 0xFD ADD MSTORE DUP2 DUP2 PUSH2 0x176 ADD MSTORE PUSH2 0x266 ADD MSTORE PUSH2 0x5A5 PUSH1 0x0 RETURN INVALID PUSH1 0x80 PUSH1 0x40 MSTORE CALLVALUE DUP1 ISZERO PUSH2 0x10 JUMPI PUSH1 0x0 DUP1 REVERT JUMPDEST POP PUSH1 0x4 CALLDATASIZE LT PUSH2 0x62 JUMPI PUSH1 0x0 CALLDATALOAD PUSH1 0xE0 SHR DUP1 PUSH4 0x89FE6AA EQ PUSH2 0x67 JUMPI DUP1 PUSH4 0x4AA4A4FC EQ PUSH2 0x89 JUMPI DUP1 PUSH4 0x73BD43AD EQ PUSH2 0xBC JUMPI DUP1 PUSH4 0x89A30271 EQ PUSH2 0xDD JUMPI DUP1 PUSH4 0xC31C9C07 EQ PUSH2 0xF8 JUMPI DUP1 PUSH4 0xE0BAB4C4 EQ PUSH2 0x11F JUMPI JUMPDEST PUSH1 0x0 DUP1 REVERT JUMPDEST PUSH2 0x70 PUSH2 0xBB8 DUP2 JUMP JUMPDEST PUSH1 0x40 MLOAD PUSH3 0xFFFFFF SWAP1 SWAP2 AND DUP2 MSTORE PUSH1 0x20 ADD JUMPDEST PUSH1 0x40 MLOAD DUP1 SWAP2 SUB SWAP1 RETURN JUMPDEST PUSH2 0xA4 PUSH20 0xC02AAA39B223FE8D0A0E5C4F27EAD9083C756CC2 DUP2 JUMP JUMPDEST PUSH1 0x40 MLOAD PUSH1 0x1 PUSH1 0x1 PUSH1 0xA0 SHL SUB SWAP1 SWAP2 AND DUP2 MSTORE PUSH1 0x20 ADD PUSH2 0x80 JUMP JUMPDEST PUSH2 0xCF PUSH2 0xCA CALLDATASIZE PUSH1 0x4 PUSH2 0x4EC JUMP JUMPDEST PUSH2 0x13A JUMP JUMPDEST PUSH1 0x40 MLOAD SWAP1 DUP2 MSTORE PUSH1 0x20 ADD PUSH2 0x80 JUMP JUMPDEST PUSH2 0xA4 PUSH20 0xA0B86991C6218B36C1D19D4A2E9EB0CE3606EB48 DUP2 JUMP JUMPDEST PUSH2 0xA4 PUSH32 0x0 DUP2 JUMP JUMPDEST PUSH2 0xA4 PUSH20 0x6B175474E89094C44DA98B954EEDEAC495271D0F DUP2 JUMP JUMPDEST PUSH1 0x0 PUSH2 0x15C PUSH20 0x6B175474E89094C44DA98B954EEDEAC495271D0F CALLER ADDRESS DUP6 PUSH2 0x2DD JUMP JUMPDEST PUSH2 0x19B PUSH20 0x6B175474E89094C44DA98B954EEDEAC495271D0F PUSH32 0x0 DUP5 PUSH2 0x3EC JUMP JUMPDEST PUSH1 0x40 DUP1 MLOAD PUSH2 0x100 DUP2 ADD DUP3 MSTORE PUSH20 0x6B175474E89094C44DA98B954EEDEAC495271D0F DUP2 MSTORE PUSH20 0xC02AAA39B223FE8D0A0E5C4F27EAD9083C756CC2 PUSH1 0x20 DUP3 ADD SWAP1 DUP2 MSTORE PUSH2 0xBB8 DUP3 DUP5 ADD SWAP1 DUP2 MSTORE CALLER PUSH1 0x60 DUP5 ADD SWAP1 DUP2 MSTORE TIMESTAMP PUSH1 0x80 DUP6 ADD SWAP1 DUP2 MSTORE PUSH1 0xA0 DUP6 ADD DUP9 DUP2 MSTORE PUSH1 0x0 PUSH1 0xC0 DUP8 ADD DUP2 DUP2 MSTORE PUSH1 0xE0 DUP9 ADD SWAP2 DUP3 MSTORE SWAP8 MLOAD PUSH4 0x414BF389 PUSH1 0xE0 SHL DUP2 MSTORE DUP8 MLOAD PUSH1 0x1 PUSH1 0x1 PUSH1 0xA0 SHL SUB SWAP1 DUP2 AND PUSH1 0x4 DUP4 ADD MSTORE SWAP7 MLOAD DUP8 AND PUSH1 0x24 DUP3 ADD MSTORE SWAP5 MLOAD PUSH3 0xFFFFFF AND PUSH1 0x44 DUP7 ADD MSTORE SWAP3 MLOAD DUP6 AND PUSH1 0x64 DUP6 ADD MSTORE SWAP1 MLOAD PUSH1 0x84 DUP5 ADD MSTORE MLOAD PUSH1 0xA4 DUP4 ADD MSTORE SWAP4 MLOAD PUSH1 0xC4 DUP3 ADD MSTORE SWAP3 MLOAD DUP2 AND PUSH1 0xE4 DUP5 ADD MSTORE SWAP1 SWAP2 PUSH32 0x0 SWAP1 SWAP2 AND SWAP1 PUSH4 0x414BF389 SWAP1 PUSH2 0x104 ADD PUSH1 0x20 PUSH1 0x40 MLOAD DUP1 DUP4 SUB DUP2 PUSH1 0x0 DUP8 GAS CALL ISZERO DUP1 ISZERO PUSH2 0x2B2 JUMPI RETURNDATASIZE PUSH1 0x0 DUP1 RETURNDATACOPY RETURNDATASIZE PUSH1 0x0 REVERT JUMPDEST POP POP POP POP PUSH1 0x40 MLOAD RETURNDATASIZE PUSH1 0x1F NOT PUSH1 0x1F DUP3 ADD AND DUP3 ADD DUP1 PUSH1 0x40 MSTORE POP DUP2 ADD SWAP1 PUSH2 0x2D6 SWAP2 SWAP1 PUSH2 0x505 JUMP JUMPDEST SWAP4 SWAP3 POP POP POP JUMP JUMPDEST PUSH1 0x40 DUP1 MLOAD PUSH1 0x1 PUSH1 0x1 PUSH1 0xA0 SHL SUB DUP6 DUP2 AND PUSH1 0x24 DUP4 ADD MSTORE DUP5 DUP2 AND PUSH1 0x44 DUP4 ADD MSTORE PUSH1 0x64 DUP1 DUP4 ADD DUP6 SWAP1 MSTORE DUP4 MLOAD DUP1 DUP5 SUB SWAP1 SWAP2 ADD DUP2 MSTORE PUSH1 0x84 SWAP1 SWAP3 ADD DUP4 MSTORE PUSH1 0x20 DUP3 ADD DUP1 MLOAD PUSH1 0x1 PUSH1 0x1 PUSH1 0xE0 SHL SUB AND PUSH4 0x23B872DD PUSH1 0xE0 SHL OR SWAP1 MSTORE SWAP2 MLOAD PUSH1 0x0 SWAP3 DUP4 SWAP3 SWAP1 DUP9 AND SWAP2 PUSH2 0x341 SWAP2 SWAP1 PUSH2 0x51E JUMP JUMPDEST PUSH1 0x0 PUSH1 0x40 MLOAD DUP1 DUP4 SUB DUP2 PUSH1 0x0 DUP7 GAS CALL SWAP2 POP POP RETURNDATASIZE DUP1 PUSH1 0x0 DUP2 EQ PUSH2 0x37E JUMPI PUSH1 0x40 MLOAD SWAP2 POP PUSH1 0x1F NOT PUSH1 0x3F RETURNDATASIZE ADD AND DUP3 ADD PUSH1 0x40 MSTORE RETURNDATASIZE DUP3 MSTORE RETURNDATASIZE PUSH1 0x0 PUSH1 0x20 DUP5 ADD RETURNDATACOPY PUSH2 0x383 JUMP JUMPDEST PUSH1 0x60 SWAP2 POP JUMPDEST POP SWAP2 POP SWAP2 POP DUP2 DUP1 ISZERO PUSH2 0x3AD JUMPI POP DUP1 MLOAD ISZERO DUP1 PUSH2 0x3AD JUMPI POP DUP1 DUP1 PUSH1 0x20 ADD SWAP1 MLOAD DUP2 ADD SWAP1 PUSH2 0x3AD SWAP2 SWAP1 PUSH2 0x54D JUMP JUMPDEST PUSH2 0x3E4 JUMPI PUSH1 0x40 MLOAD PUSH3 0x461BCD PUSH1 0xE5 SHL DUP2 MSTORE PUSH1 0x20 PUSH1 0x4 DUP3 ADD MSTORE PUSH1 0x3 PUSH1 0x24 DUP3 ADD MSTORE PUSH3 0x29AA23 PUSH1 0xE9 SHL PUSH1 0x44 DUP3 ADD MSTORE PUSH1 0x64 ADD JUMPDEST PUSH1 0x40 MLOAD DUP1 SWAP2 SUB SWAP1 REVERT JUMPDEST POP POP POP POP POP POP JUMP JUMPDEST PUSH1 0x40 DUP1 MLOAD PUSH1 0x1 PUSH1 0x1 PUSH1 0xA0 SHL SUB DUP5 DUP2 AND PUSH1 0x24 DUP4 ADD MSTORE PUSH1 0x44 DUP1 DUP4 ADD DUP6 SWAP1 MSTORE DUP4 MLOAD DUP1 DUP5 SUB SWAP1 SWAP2 ADD DUP2 MSTORE PUSH1 0x64 SWAP1 SWAP3 ADD DUP4 MSTORE PUSH1 0x20 DUP3 ADD DUP1 MLOAD PUSH1 0x1 PUSH1 0x1 PUSH1 0xE0 SHL SUB AND PUSH4 0x95EA7B3 PUSH1 0xE0 SHL OR SWAP1 MSTORE SWAP2 MLOAD PUSH1 0x0 SWAP3 DUP4 SWAP3 SWAP1 DUP8 AND SWAP2 PUSH2 0x448 SWAP2 SWAP1 PUSH2 0x51E JUMP JUMPDEST PUSH1 0x0 PUSH1 0x40 MLOAD DUP1 DUP4 SUB DUP2 PUSH1 0x0 DUP7 GAS CALL SWAP2 POP POP RETURNDATASIZE DUP1 PUSH1 0x0 DUP2 EQ PUSH2 0x485 JUMPI PUSH1 0x40 MLOAD SWAP2 POP PUSH1 0x1F NOT PUSH1 0x3F RETURNDATASIZE ADD AND DUP3 ADD PUSH1 0x40 MSTORE RETURNDATASIZE DUP3 MSTORE RETURNDATASIZE PUSH1 0x0 PUSH1 0x20 DUP5 ADD RETURNDATACOPY PUSH2 0x48A JUMP JUMPDEST PUSH1 0x60 SWAP2 POP JUMPDEST POP SWAP2 POP SWAP2 POP DUP2 DUP1 ISZERO PUSH2 0x4B4 JUMPI POP DUP1 MLOAD ISZERO DUP1 PUSH2 0x4B4 JUMPI POP DUP1 DUP1 PUSH1 0x20 ADD SWAP1 MLOAD DUP2 ADD SWAP1 PUSH2 0x4B4 SWAP2 SWAP1 PUSH2 0x54D JUMP JUMPDEST PUSH2 0x4E5 JUMPI PUSH1 0x40 MLOAD PUSH3 0x461BCD PUSH1 0xE5 SHL DUP2 MSTORE PUSH1 0x20 PUSH1 0x4 DUP3 ADD MSTORE PUSH1 0x2 PUSH1 0x24 DUP3 ADD MSTORE PUSH2 0x5341 PUSH1 0xF0 SHL PUSH1 0x44 DUP3 ADD MSTORE PUSH1 0x64 ADD PUSH2 0x3DB JUMP JUMPDEST POP POP POP POP POP JUMP JUMPDEST PUSH1 0x0 PUSH1 0x20 DUP3 DUP5 SUB SLT ISZERO PUSH2 0x4FE JUMPI PUSH1 0x0 DUP1 REVERT JUMPDEST POP CALLDATALOAD SWAP2 SWAP1 POP JUMP JUMPDEST PUSH1 0x0 PUSH1 0x20 DUP3 DUP5 SUB SLT ISZERO PUSH2 0x517 JUMPI PUSH1 0x0 DUP1 REVERT JUMPDEST POP MLOAD SWAP2 SWAP1 POP JUMP JUMPDEST PUSH1 0x0 DUP3 MLOAD PUSH1 0x0 JUMPDEST DUP2 DUP2 LT ISZERO PUSH2 0x53F JUMPI PUSH1 0x20 DUP2 DUP7 ADD DUP2 ADD MLOAD DUP6 DUP4 ADD MSTORE ADD PUSH2 0x525 JUMP JUMPDEST POP PUSH1 0x0 SWAP3 ADD SWAP2 DUP3 MSTORE POP SWAP2 SWAP1 POP JUMP JUMPDEST PUSH1 0x0 PUSH1 0x20 DUP3 DUP5 SUB SLT ISZERO PUSH2 0x55F JUMPI PUSH1 0x0 DUP1 REVERT JUMPDEST DUP2 MLOAD DUP1 ISZERO ISZERO DUP2 EQ PUSH2 0x2D6 JUMPI PUSH1 0x0 DUP1 REVERT INVALID LOG2 PUSH5 0x6970667358 0x22 SLT KECCAK256 0x23 0x2A 0xE3 0xAE XOR CALLDATASIZE 0x2F 0xC8 0x2E DUP14 KECCAK256 0xD8 MSTORE8 0x4B 0x5E EXP 0xD4 DUP7 CALL GAS 0xCB 0xC4 PC SWAP1 PUSH21 0xBEC4C375B78B1764736F6C63430008140033000000 "},"methodIdentifiers":{"DAI()":"e0bab4c4","USDC()":"89a30271","WETH9()":"4aa4a4fc","poolFee()":"089fe6aa","swapExactInputSingle(uint256)":"73bd43ad","swapRouter()":"c31c9c07"}}}}}