{
  "_format": "hh-sol-artifact-1",
  "contractName": "TokenSwapper",
  "sourceName": "contracts/multiSwap.sol",
  "abi": [
    {
      "inputs": [
        {
          "internalType": "address",
          "name": "tokenAddress",
          "type": "address"
        }
      ],
      "name": "allowanceAmount",
      "outputs": [
        {
          "internalType": "uint256",
          "name": "allowance",
          "type": "uint256"
        }
      ],
      "stateMutability": "view",
      "type": "function"
    },
    {
      "inputs": [
        {
          "internalType": "address",
          "name": "tokenAddress",
          "type": "address"
        }
      ],
      "name": "getBalance",
      "outputs": [
        {
          "internalType": "uint256",
          "name": "balance",
          "type": "uint256"
        }
      ],
      "stateMutability": "view",
      "type": "function"
    },
    {
      "inputs": [
        {
          "internalType": "address",
          "name": "tokenIn",
          "type": "address"
        },
        {
          "internalType": "address",
          "name": "tokenOut",
          "type": "address"
        },
        {
          "internalType": "uint256",
          "name": "amountIn",
          "type": "uint256"
        },
        {
          "internalType": "uint256",
          "name": "amountOutMinimum",
          "type": "uint256"
        },
        {
          "internalType": "uint24",
          "name": "fee",
          "type": "uint24"
        }
      ],
      "name": "swapErc20ToErc20",
      "outputs": [
        {
          "internalType": "uint256",
          "name": "amountOut",
          "type": "uint256"
        }
      ],
      "stateMutability": "nonpayable",
      "type": "function"
    },
    {
      "inputs": [
        {
          "internalType": "address",
          "name": "tokenIn",
          "type": "address"
        },
        {
          "internalType": "address",
          "name": "tokenOut",
          "type": "address"
        },
        {
          "internalType": "uint256",
          "name": "amountOutMinimum",
          "type": "uint256"
        },
        {
          "internalType": "uint24",
          "name": "fee",
          "type": "uint24"
        }
      ],
      "name": "swapEthToErc20",
      "outputs": [
        {
          "internalType": "uint256",
          "name": "amountOut",
          "type": "uint256"
        }
      ],
      "stateMutability": "payable",
      "type": "function"
    },
    {
      "inputs": [],
      "name": "swapRouter",
      "outputs": [
        {
          "internalType": "contract ISwapRouter",
          "name": "",
          "type": "address"
        }
      ],
      "stateMutability": "view",
      "type": "function"
    }
  ],
  "bytecode": "0x608060405234801561001057600080fd5b5061099e806100206000396000f3fe60806040526004361061004a5760003560e01c806333aaf4181461004f5780633cc0ab3a14610082578063705de66c146100a2578063c31c9c07146100b5578063f8b2cb4f146100f5575b600080fd5b34801561005b57600080fd5b5061006f61006a366004610781565b610115565b6040519081526020015b60405180910390f35b34801561008e57600080fd5b5061006f61009d3660046107b6565b610197565b61006f6100b036600461080d565b610356565b3480156100c157600080fd5b506100dd73e592427a0aece92de3edee1f18e0157c0586156481565b6040516001600160a01b039091168152602001610079565b34801561010157600080fd5b5061006f610110366004610781565b6104e3565b604051636eb1769f60e11b815233600482018190523060248301819052600092849291906001600160a01b0384169063dd62ed3e90604401602060405180830381865afa15801561016a573d6000803e3d6000fd5b505050506040513d601f19601f8201168201806040525081019061018e919061085a565b95945050505050565b60006001600160a01b03861673c02aaa39b223fe8d0a0e5c4f27ead9083c756cc2036101fc5760405162461bcd60e51b815260206004820152600f60248201526e0a8ded6cadc92dc40d2e640ae8ae8d608b1b60448201526064015b60405180910390fd5b836000036102475760405162461bcd60e51b815260206004820152601860248201527704e6f7420656e6f75676820746f6b656e20746f20737761760441b60448201526064016101f3565b33600061025642611770610873565b90506102648833308961055b565b6102838873e592427a0aece92de3edee1f18e0157c0586156488610665565b60408051610100810182526001600160a01b03808b168252898116602083015262ffffff871682840152841660608201526080810183905260a0810188905260c08101879052600060e0820152905163414bf38960e01b815273e592427a0aece92de3edee1f18e0157c058615649063414bf3899061030690849060040161089a565b6020604051808303816000875af1158015610325573d6000803e3d6000fd5b505050506040513d601f19601f82011682018060405250810190610349919061085a565b9998505050505050505050565b600073c02aaa39b223fe8d0a0e5c4f27ead9083c756cc26001600160a01b038616146103bb5760405162461bcd60e51b8152602060048201526014602482015273546f6b656e496e206973206e6f7420574574682160601b60448201526064016101f3565b346000036104065760405162461bcd60e51b815260206004820152601860248201527704e6f7420656e6f75676820746f6b656e20746f20737761760441b60448201526064016101f3565b33600061041542611770610873565b60408051610100810182526001600160a01b03808b168252898116602083015262ffffff88168284015285166060820152608081018390523460a0820181905260c08201899052600060e0830152915163414bf38960e01b8152929350909173e592427a0aece92de3edee1f18e0157c058615649063414bf3899084906104a090859060040161089a565b60206040518083038185885af11580156104be573d6000803e3d6000fd5b50505050506040513d601f19601f82011682018060405250810190610349919061085a565b6040516370a0823160e01b815233600482018190526000918391906001600160a01b038316906370a0823190602401602060405180830381865afa15801561052f573d6000803e3d6000fd5b505050506040513d601f19601f82011682018060405250810190610553919061085a565b949350505050565b604080516001600160a01b0385811660248301528481166044830152606480830185905283518084039091018152608490920183526020820180516001600160e01b03166323b872dd60e01b17905291516000928392908816916105bf9190610917565b6000604051808303816000865af19150503d80600081146105fc576040519150601f19603f3d011682016040523d82523d6000602084013e610601565b606091505b509150915081801561062b57508051158061062b57508080602001905181019061062b9190610946565b61065d5760405162461bcd60e51b815260206004820152600360248201526229aa2360e91b60448201526064016101f3565b505050505050565b604080516001600160a01b038481166024830152604480830185905283518084039091018152606490920183526020820180516001600160e01b031663095ea7b360e01b17905291516000928392908716916106c19190610917565b6000604051808303816000865af19150503d80600081146106fe576040519150601f19603f3d011682016040523d82523d6000602084013e610703565b606091505b509150915081801561072d57508051158061072d57508080602001905181019061072d9190610946565b61075e5760405162461bcd60e51b8152602060048201526002602482015261534160f01b60448201526064016101f3565b5050505050565b80356001600160a01b038116811461077c57600080fd5b919050565b60006020828403121561079357600080fd5b61079c82610765565b9392505050565b803562ffffff8116811461077c57600080fd5b600080600080600060a086880312156107ce57600080fd5b6107d786610765565b94506107e560208701610765565b93506040860135925060608601359150610801608087016107a3565b90509295509295909350565b6000806000806080858703121561082357600080fd5b61082c85610765565b935061083a60208601610765565b92506040850135915061084f606086016107a3565b905092959194509250565b60006020828403121561086c57600080fd5b5051919050565b8082018082111561089457634e487b7160e01b600052601160045260246000fd5b92915050565b60006101008201905060018060a01b0380845116835280602085015116602084015262ffffff6040850151166040840152806060850151166060840152506080830151608083015260a083015160a083015260c083015160c083015260e083015161091060e08401826001600160a01b03169052565b5092915050565b6000825160005b81811015610938576020818601810151858301520161091e565b506000920191825250919050565b60006020828403121561095857600080fd5b8151801515811461079c57600080fdfea26469706673582212204c59d03e254330871fa7656a4472757b53cd8136b07209c1f3cf948b91bfaa1f64736f6c63430008140033",
  "linkReferences": {},
  "deployedLinkReferences": {}
}